:020000040800F2
:1000000060070020551D0008351D0008371D000839
:100010003B1D00083F1D0008431D000800000000B4
:10002000000000000000000000000000471D000864
:10003000491D0008000000004B1D00084D1D000870
:100040006F1D00086F1D00086F1D00086F1D000860
:100050006F1D00086F1D00086F1D00086F1D000850
:100060006F1D00086F1D00086F1D00086F1D000840
:100070006F1D00086F1D00086F1D00086F1D000830
:100080006F1D00086F1D00086F1D00086F1D000820
:100090006F1D00086F1D00086F1D00086F1D000810
:1000A0006F1D00086F1D00086F1D00086F1D000800
:1000B0006F1D0008C50C00086F1D00086F1D0008AB
:1000C0006F1D00086F1D00086F1D00086F1D0008E0
:1000D0006F1D0008370E0008A9100008AF120008B5
:1000E0006F1D00086F1D00086F1D00086F1D0008C0
:1000F0006F1D00086F1D00086F1D00086F1D0008B0
:100100006F1D00086F1D00086F1D00086F1D00089F
:100110006F1D00086F1D00086F1D00086F1D00088F
:100120006F1D00086F1D00086F1D00086F1D00087F
:10013000DFF80CD001F032FE00480047450100080E
:100140006007002008B500240020009001F026F987
:1001500000F08AFD00F016FE00F0FFFE4FA001F057
:100160002FFE00F08FF900F042FA412000F07CFAF7
:100170005148806940F004004F4988614F48006849
:1001800020F00F004D4908600846006840F001006B
:1001900008604A480C30006840F0010047490C31C3
:1001A0000860474801F02DF944480C30006820F001
:1001B000010042490C310860414801F022F96BE02E
:1001C00000F080F800F0BFFD0446002C64D0412C04
:1001D00045D012DC212C36D008DC112C27D0122C73
:1001E00022D0142C1DD0182C48D117E0222C27D057
:1001F000242C22D0282C41D11CE0812C3BD006DCC1
:10020000422C29D0442C24D0482C37D11EE0822CFB
:100210002ED0842C29D0882C30D123E012200090BD
:100220002FE0122000902CE02120009029E02220D5
:10023000009026E03120009023E03220009020E062
:10024000412000901DE0422000901AE052200090D2
:1002500017E05220009014E00120009011E00220ED
:1002600000900EE0032000900BE00420009008E0D6
:100270000520009005E00020009002E0FF200090A3
:1002800000BF00BF01222221684600F010FE0122BB
:100290002221684600F0B7FE92E70000536C6176B9
:1002A000652053797374656D20537563636573734B
:1002B00066756C0A00000000001002400008014052
:1002C000A08601007FB50024002001906946262009
:1002D00000F08CFA0546262804D06946262000F056
:1002E00085FA0546262D70D1684600F0AAFA262820
:1002F0006BD1684600F018FB6B46344A1121602030
:1003000000F04BFB02A9112000F0CBFB26285CD1AA
:10031000002437E002A8005D2D49095D884230D0F5
:10032000012001900122212101A800F0C0FD01223D
:10033000212101A800F067FE2648006840F0010076
:1003400024490860244801F05CF82248006820F045
:10035000010020490860204801F053F81D4800685A
:1003600040F001001B4908601B4801F04AF8194899
:10037000006820F0010017490860174801F041F8B3
:1003800021E0641C082CC5DB0122212101A800F01A
:100390008EFD0122212101A800F035FE0D480068E4
:1003A00040F001000B4908600B4801F02AF80948A9
:1003B000006820F0010007490860074801F021F8B3
:1003C0000020019000BF00F097FB7FBD00000020DF
:1003D000060000200C080140A086010008B501219C
:1003E000042001F03FFC1020ADF8000003208DF840
:1003F000020010208DF803006946284801F07CF9BE
:100400000121042001F02EFC2020ADF80000032083
:100410008DF8020010208DF8030069461F4801F096
:100420006BF90121042001F01DFC8020ADF80000D3
:1004300003208DF8020010208DF80300694617484C
:1004400001F05AF90121042001F00CFC4020ADF824
:10045000000004208DF803006946104801F04CF9B3
:100460000121082001F0FEFB0420ADF8000003206C
:100470008DF8020010208DF803006946084801F04D
:100480003BF908BD10B5FFF7A9FF0421044801F0AE
:10049000DEF91021014801F0DAF910BD0008014031
:1004A000000C014070B50446002520E014F0800FD8
:1004B00004D08021FE4801F0CAF903E08021FC4805
:1004C00001F0C7F9022000F09CFF2021F84801F05C
:1004D000C0F9022000F095FF2021F54801F0B7F99E
:1004E000022000F08EFF6006040E681CC5B2082DC5
:1004F000DCDB70BD70B500251CE06006040E202119
:10050000EB4801F0A6F9022000F07BFF4021E8480B
:1005100001F083F9012801D144F00104022000F028
:1005200070FF2021E24801F092F9022000F069FFFB
:10053000681CC5B2082DE0DB204670BD70B50446CE
:100540007E2000EA440040F080051021D84801F0E8
:1005500080F92846FFF7A6FFFFF7CCFF06461021DB
:10056000D34801F074F9304670BD70B504460D46AD
:100570007E2000EA44061021CD4801F06AF9304699
:10058000FFF790FF2846FFF78DFF1021C84801F0C4
:100590005EF970BD70B505460C462846FFF7CEFFE4
:1005A000064646EA04012846FFF7DFFF70BD70B536
:1005B00005460C462846FFF7C1FF064626EA040119
:1005C0002846FFF7D2FF70BD10B51420FFF7B6FF25
:1005D000044614F0030F03D103211420FFF7DAFFC0
:1005E00010BD10B503211420FFF7E1FF10BD10B5B9
:1005F0000421B04801F02BF9012000F002FF042192
:10060000AC4801F026F9012000F0FBFE0421A948C6
:1006100001F01DF9012000F0F4FE0F210120FFF789
:10062000A4FF00BF0120FFF789FF10F0100FF9D1E0
:10063000012000F0E6FE3D211120FFF796FF1E216C
:100640002D20FFF792FF00212C20FFF78EFF8D2138
:100650002A20FFF78AFF3E212B20FFF786FF40214B
:100660001520FFF782FF10BD10B50446412C24D1A0
:1006700008210846FFF79BFF3D211120FFF775FF7A
:1006800086211720FFF771FF7F212620FFF76DFFDE
:100690001E212D20FFF769FF00212C20FFF765FFA9
:1006A0008D212A20FFF761FF3E212B20FFF75DFF00
:1006B000022000F0A6FEFFF787FF10BD2DE9FE4FD8
:1006C0000646884691469A46DDF830B0BB20029037
:1006D0000020019000900C2E06D00E2E09D1122081
:1006E00001901020009005E07720019030200090CC
:1006F00000E000BF00BF019840F080010220FFF73A
:1007000034FF80210420FFF752FF00210120FFF772
:100710002CFF80210A20FFF73DFF002505E018F897
:1007200005100920FFF721FF6D1C4D45F7D3314619
:100730000120FFF71AFF0C2E03D180210D20FFF7B7
:1007400029FF4FF47A7500BF0420FFF7F7FE044637
:100750006D1E2DB114F0010F02D100980442F3D0A8
:1007600080210D20FFF723FF95B30620FFF7E6FE5B
:1007700010F01B0F2DD1262002900198204010F080
:10078000010F01D0CC2002900C2E24D10A20FFF7BB
:10079000D5FE04460C20FFF7D1FE00F007072FB16D
:1007A000601E07EBC000CBF8000002E0E000CBF8D1
:1007B000000004B90124122C00DD1224002505E0FC
:1007C0000920FFF7BBFE0AF805006D1CA542F7D310
:1007D00001E0BB20029080210C20FFF7DBFE00210E
:1007E0000120FFF7C2FE0298BDE8FE8F70B588B009
:1007F00005460C4608210846FFF7D9FE07210D20C3
:10080000FFF7B3FE03211420FFF7C4FE8DF80C5050
:1008100002A803AB012203A900900C20FFF74EFFB2
:100820000646262E09D10298102806D19DF80C0004
:1008300020709DF80D00607000E0BB26304608B0C7
:1008400070BDF0B587B00546002708210846FFF7C0
:10085000AEFE00210D20FFF788FE80210E20FFF75D
:10086000A6FE93208DF8080020208DF8090001A82D
:1008700002AB022202A900900C20FFF71FFF0646E0
:10088000262E10D1002407E002A8005D285502A8FA
:10089000005D4740601CC4B2042CF5DB02A8005D7B
:1008A000B84200D0BB2680210E20FFF773FE03E084
:1008B00000080140000C0140304607B0F0BD2DE9B2
:1008C000F04107468846154604210520FFF76FFED4
:1008D00000210120FFF749FE80210A20FFF75AFE80
:1008E000002405E0395D0920FFF73FFE601CC4B21B
:1008F0004445F7DB03210120FFF737FEFF2400BF4B
:100900000520FFF71BFE0646601EC4B214B116F0A8
:10091000040FF5D02220FFF711FE28702120FFF7E9
:100920000DFE6870BDE8F08170B588B00546932073
:100930008DF80C0070208DF80D0000208DF812004D
:1009400000240BE0295D03AAA01C11549DF812009D
:10095000295D48408DF81200601CC4B2042CF1DB04
:100960000DF11302072103A8FFF7A9FF082108468C
:10097000FFF71DFE02A803AB092203A900900C207B
:10098000FFF79CFE0646262E03D10298182800D1B8
:1009900000E0BB26304608B070BD2DE9F04387B0BB
:1009A00006460F46904699468DF808608DF8097006
:1009B000002406E018F8041002AAA01C1154601CC0
:1009C000C4B2062CF6DB002407E019F8041002AAD2
:1009D00004F108001154601CC4B2062CF5DB01A818
:1009E00002AB0C2202A900900E20FFF767FE05461D
:1009F000262D05D10820FFF7A1FD10F0080F00D12A
:100A0000BB25284607B0BDE8F083F0B587B00646A1
:100A10000F46A0208DF808008DF809600DF10A023C
:100A2000022102A8FFF74BFF01A802AB042202A992
:100A300000900C20FFF742FE0546262D08D10198B4
:100A4000042805D19DF8080000F00F000A2800D006
:100A5000BB25262D22D1002404E0385D02A90855CB
:100A6000601CC4B2102CF8DB06AA102102A8FFF704
:100A700026FF01A802AB122202A900900C20FFF76A
:100A80001DFE0546262D08D10198042805D19DF8A4
:100A9000080000F00F000A2800D0BB25284607B048
:100AA000F0BDF0B587B005460E4630208DF8080041
:100AB0008DF809500DF10A02022102A8FFF7FFFE8E
:100AC00001A802AB042202A900900C20FFF7F6FD5A
:100AD0000746262F0CD10198902809D1002404E064
:100AE00002A8005D3055601CC4B2102CF8DB00E099
:100AF000BB27384607B0F0BD00B587B050208DF851
:100B0000080000208DF809000DF10A02022102A858
:100B1000FFF7D5FE01A802AB042202A900900C2029
:100B2000FFF7CCFD262007B000BD7FB505460C467B
:100B3000E0B28DF80000200A8DF80100200C8DF83D
:100B40000200200E8DF80300E043C0B28DF80400CF
:100B5000E043000A8DF80500E043000C8DF8060024
:100B6000E043000E8DF80700E0B28DF80800200A7F
:100B70008DF80900200C8DF80A00200E8DF80B006E
:100B80008DF80C50E843C0B28DF80D008DF80E5072
:100B9000E843C0B28DF80F0069462846FFF735FFDD
:100BA0000646304604B070BD2DE9FF4107460D46AC
:100BB000BB2669463846FFF774FF0646262E03D04B
:100BC000304604B0BDE8F081002412E01DF80410A6
:100BD00004F108001DF80000814208D01DF804103F
:100BE000201D1DF80000C043814200D003E0601CBE
:100BF000C4B2042CEADB00BF042C10D126269DF8D9
:100C000000009DF8011000EB01209DF8021000EBA0
:100C100001409DF8031000EB0160286002E0BB2654
:100C2000002028603046CCE701280DD14F49504ABA
:100C300011601146C96841F00F01D1601146C968C1
:100C400021F0F001D1600EE002280CD14949484A58
:100C500011601146C96841F0F001D1601146C968C0
:100C600021F00F01D160704700B54348806940F022
:100C70001000414988610120FFF7D6FF00BD3E4AC0
:100C8000D26942F002023C4BDA613C4A1080121FEA
:100C900011803A4A2C3A128822F01002374B2C3B32
:100CA0001A80364A203A128842F00102334B203B28
:100CB0001A80334A126842F000524FF0E023C3F822
:100CC000002170472D481C38008810F0010F07D014
:100CD0002A481C38008820F0010028491C39088067
:100CE000704710B500240120FFF79EFF2048806860
:100CF00010F0F00F0CD04EF6602000F082FB1C4884
:100D0000806810F0F00F03D01948806800F0F004FC
:100D1000204610BD10B500240220FFF785FF1448BF
:100D2000806810F00F0F0CD04EF6602000F069FBC9
:100D30000F48806810F00F0F03D00D48806800F056
:100D40000F04204610BD70B5FFF7E4FF0546FFF71E
:100D5000C8FF45EA000414F00F0F02D014F0F00FA2
:100D600001D1002070BDE0B2FCE7000011118888BD
:100D70000010014088881111001002402C0400402E
:100D800000E100E04FF48050FE49896941F0010123
:100D9000FC4A9161FC49496821F00401FA4A51601A
:100DA000F849896941F00401F64A9161F7490968F7
:100DB00021F47F61F54A11601146096841F0B001E4
:100DC00011601146096841F480611160ED4989693B
:100DD00041F48041EB4A91612C21ED4A11800021C0
:100DE000121D1180121D11804FF46A61E84A121F12
:100DF00011802021E74A116000E000BF0100A0F14E
:100E00000100FAD1E249098841F40051E04A118019
:100E1000704710B502460B460021002000BF02E0DB
:100E2000545C6040491C9942FADB10BDD848083830
:100E30000088C0B2704700B5D5480C38008810F063
:100E4000200F26D0FFF7F2FFD349D44A12788854F6
:100E5000D2480078401CD149087008460078401EEE
:100E6000CD49085C7B280DD108460078B72809D108
:100E7000CA480078801EC1B2C748FFF7CAFF0020E9
:100E8000C6490870C54800787B2802DB0020C349AA
:100E9000087000BD00BFBE490C39098811F0800FF1
:100EA000F9D0C0F30801BA4A083A118070472DE919
:100EB000F043C1B006460F46904608F1040084B2E4
:100EC0000025A9464FF4807101A800F05CFFFF2CBB
:100ED00002DD41B0BDE8F083B7208DF804008DF845
:100EE0000570002513E045B1012D06D04846411C90
:100EF0001FFA81F9305C01A94855A01E01A9085CC0
:100F0000495D4840A11E01AA5054681C85B2A01E2C
:100F1000A842E8DC7B21601E01AA1154A01E01A991
:100F2000085C611E515C4840A11E5054002506E03B
:100F300029466A1C95B201AA505CFFF7ABFFA54297
:100F4000F6DB00BFC5E792480C38008810F0200F90
:100F500001D0012070470020FCE74FF48050894900
:100F6000896941F00101874A91618749496821F007
:100F70000801854A51608349896941F00401814A29
:100F800091618249091F096821F47F417F4A121F3C
:100F900011601146096841F4306111601146096819
:100FA00041F4804111607749C96941F40031754AC3
:100FB000D1612C217A4A11800021121D1180121D4D
:100FC00011804FF46A61764A121F11804021714AE4
:100FD000116000E000BF0100A0F10100FAD17049EA
:100FE000098841F400516E4A1180704700BF6C4976
:100FF0000C39098811F0800FF9D0C0F30801684A54
:10100000083A118070472DE9F043C1B006460F46FB
:10101000904608F1040084B20025A9464FF480717F
:1010200001A800F0B0FEFF2C02DD41B0BDE8F08366
:10103000B7208DF804008DF80570002513E045B148
:10104000012D06D04846411C1FFA81F9305C01A9E8
:101050004855A01E01A9085C495D4840A11E01AA8F
:101060005054681C85B2A01EA842E8DC7B21601E9B
:1010700001AA1154A01E01A9085C611E515C4840E0
:10108000A11E5054002506E029466A1C95B201AA0B
:10109000505CFFF7ABFFA542F6DB00BFC5E7404859
:1010A00008380088C0B2704710B53D480C38008839
:1010B00010F0200F34D0FFF7F2FF3A493A4A127885
:1010C000885439480078401C374908700846007831
:1010D000401E3449085C7B281BD108460078B7289D
:1010E00017D131480078801EC1B22E48FFF791FE1B
:1010F00080F07B012C480078801E2A4A105C8142D7
:1011000004D1012203212848FFF77DFF0020264952
:101110000870254800787B2802DB002022490870EF
:1011200010BD1F480C38008810F0200F01D001209E
:1011300070470020FCE74FF480501249896941F064
:101140000101104A91611049496841F010010E4AAD
:1011500051600C49896941F004010A4A91611349BF
:10116000496821F47F41114A51601146496841F4B0
:10117000306151601146496841F480415160014934
:10118000C96915E000100240000001400408014058
:101190000C38014004E100E05C0000202000002049
:1011A0000C4400405B0100202100002000100140A1
:1011B00041F48021744AD1612C21744A11800021AC
:1011C000121D1180121D11804FF46A616F4A121FA7
:1011D000118080216E4A116000E000BF0100A0F183
:1011E0000100FAD16949098841F40051674A118028
:1011F000704700BF65490C39098811F0800FF9D09C
:10120000C0F30801614A083A118070472DE9F043A4
:10121000C1B006460F46904608F1040084B200258E
:10122000A9464FF4807101A800F0ADFDFF2C02DD4E
:1012300041B0BDE8F083B7208DF804008DF805704B
:10124000002513E045B1012D06D04846411C1FFA88
:1012500081F9305C01A94855A01E01A9085C495DCF
:101260004840A11E01AA5054681C85B2A01EA84285
:10127000E8DC7B21601E01AA1154A01E01A9085CB4
:10128000611E515C4840A11E5054002506E02946CD
:101290006A1C95B201AA505CFFF7ABFFA542F6DBD2
:1012A00000BFC5E7394808380088C0B2704710B59C
:1012B00036480C38008810F0200F34D0FFF7F2FFCA
:1012C0003449354A1278885433480078401C3249F2
:1012D000087008460078401E2E49085C7B281BD108
:1012E00008460078B72817D12B480078801EC1B275
:1012F0002848FFF78EFD80F07B0127480078801E8C
:10130000244A105C814204D1012203212248FFF7C4
:101310007DFF0020204908701F4800787B2802DBF1
:1013200000201D49087010BD18480C38008810F0C6
:10133000200F01D0012070470020FCE710B50346C4
:101340000C460A2B02D10D20FFF750FE1846FFF77E
:101350004DFE10BD00B50146FFF7A1FE00BD0146E0
:101360000020704703460020704701460020704768
:1013700001464FF0FF30704700B503461846FFF7AF
:1013800035FE00BD00BFFEE7001002400C480040E3
:1013900004E100E05A0200202200002030B52A4873
:1013A00000682A4AB0FBF2F1B1F1807F01D301203D
:1013B0001BE021F07F40401E4FF0E02250615017AB
:1013C0000F22002806DA1301214C00F00F052D1F13
:1013D000635502E013011F4C235400BF00204FF05F
:1013E000E022906107201061002008B100BFFEE7F5
:1013F0004FF0E020006920F001004FF0E02108618B
:1014000030BD01B51449009808604FF0E020006934
:1014100040F001004FF0E021086100BF0E48006875
:101420000028FBD14FF0E020006920F001004FF0D0
:10143000E021086108BD0848006820B1064800683E
:10144000401E0549086070473400002040420F00EC
:1014500018ED00E000E400E0300000200CB50020B2
:10146000019000906B48006840F480306949086042
:1014700000BF6848006800F4003000900198401CEC
:101480000190009818B90198B0F5A06FF1D16148AA
:10149000006810F4003F02D00120009001E000201D
:1014A00000900098012842D15B48006840F010008D
:1014B000594908600846006820F0030008600846A3
:1014C000006840F002000860524840685149486096
:1014D0000846406848600846406840F480604860BC
:1014E0000846406820F47C1048600846406840F494
:1014F000E81048600846006840F08070086000BF4F
:101500004448006810F0007FFAD04248406820F05C
:101510000300404948600846406840F002004860C7
:1015200000BF3C48406800F00C000828F9D10CBD11
:1015300010B5FFF793FF10BD10B53648006840F0B6
:101540000100344908600846406834490840314980
:10155000486008460068324908402E49086008463D
:10156000006820F4802008600846406820F4FE00EF
:1015700048604FF41F008860FFF7DAFF4FF000600B
:101580002849086010BD10B5002100200022214B21
:101590005B6803F00C0121B1042906D0082928D189
:1015A00007E0214B214C236027E01F4B1F4C236099
:1015B00023E0184B5B6803F47010164B5B6803F470
:1015C0008032022303EB904022B9194B4343174C5E
:1015D00023600DE00F4B5B6813F4003F04D0144B05
:1015E0004343124C236003E00F4B43430F4C2360F3
:1015F00003E00D4B0D4C236000BF00BF054B5B6843
:10160000C3F303130B4CE15C084B1B68CB40074C46
:10161000236010BD00100240002002400000FFF8CF
:10162000FFFFF6FE08ED00E000127A003400002013
:1016300000093D003800002010B50446CA48844225
:1016400008D10121042000F027FB0021042000F034
:1016500023FB46E0C548844208D10121082000F060
:101660001BFB0021082000F017FB3AE0C048844231
:1016700008D10121102000F00FFB0021102000F004
:101680000BFB2EE0BB48844208D10121202000F052
:1016900003FB0021202000F0FFFA22E0B64884423C
:1016A00008D10121402000F0F7FA0021402000F08D
:1016B000F3FA16E0B148844208D10121802000F0FD
:1016C000EBFA0021802000F0E7FA0AE0AC488442FF
:1016D00007D10121801500F0DFFA0021A01500F0EC
:1016E000DBFA10BD10B50121084600F0D5FA002143
:1016F000012000F0D1FA10BD2DE9F041024600258D
:101700000026002000230024002791F803C00CF0DD
:101710000F0591F803C01CF0100F03D091F802C020
:101720004CEA050591F800C0BCF1000F31D01468F7
:1017300000202BE04FF0010C0CFA00F3B1F800C0D0
:101740000CEA03069E4220D183004FF00F0C0CFAE6
:1017500003F7BC4305FA03FC4CEA040491F803C008
:10176000BCF1280F06D14FF0010C0CFA00FCC2F8B6
:1017700014C00AE091F803C0BCF1480F05D14FF046
:10178000010C0CFA00FCC2F810C0401C0828D1D390
:101790001460B1F800C0BCF1FF0F34DD54680020C4
:1017A0002EE000F1080C4FF0010808FA0CF3B1F834
:1017B00000C00CEA03069E4221D183004FF00F0CBB
:1017C0000CFA03F7BC4305FA03FC4CEA040491F855
:1017D00003C0BCF1280F05D100F1080C08FA0CF881
:1017E000C2F8148091F803C0BCF1480F07D100F192
:1017F000080C4FF0010808FA0CF8C2F81080401CE1
:101800000828CED35460BDE8F0814FF6FF71018007
:10181000022181700421C170704702460020936844
:101820000B4201D0012000E000207047014688688B
:1018300080B2704702460020D3680B4201D00120DD
:1018400000E0002070470146C86880B2704701611F
:101850007047416170470AB1016100E04161704722
:10186000C16070474FF480320A43826181618261B6
:1018700082698269704702460020424B18684FF621
:101880008073184040EA021008433E4B18607047CE
:101890003D49C8617047F0B50A4600230024002185
:1018A000002500F00046B6F1004F02D1354EF16937
:1018B00001E0344E7168C0F3034583B200F4401672
:1018C000B6F5401F08D121F070612E4E766826F0E3
:1018D00070662C4F7E6012E000F48016B6F5801F13
:1018E00006D1032606FA05F4A14341F0706106E033
:1018F000460D360103FA06F6B14341F0706122B19C
:10190000460D360103FA06F6314300F00046B6F103
:10191000004F02D11B4EF16101E01A4E7160F0BD23
:1019200030B500228B071C0F0F2303FA04F2154B6E
:1019300008338C1053F824309343124C08348D1024
:1019400044F8253023468C1053F824308C07240F9C
:1019500000FA04F423430B4C08348D1044F825306E
:1019600030BD0A490860704700080140000C014082
:10197000001001400014014000180140001C01400B
:10198000002001400000014000002042DC00204215
:10199000DD48006840F00100DB4908600846406807
:1019A000DA490840D849486008460068D8490840E4
:1019B000D54908600846006820F480200860084681
:1019C000406820F4FE0048604FF41F0088607047B4
:1019D000CD49096821F48031CB4A1160114609686C
:1019E00021F480211160B0F5803F03D0B0F5802F45
:1019F0000ED106E0C449096841F48031C24A116041
:101A000007E0C149096841F4A021BF4A116000E024
:101A100000BF00BF704710B5014600220023002020
:101A20004A11012A02D1B84C236806E0022A02D1E9
:101A3000B54C236A01E0B44C636A01F01F02012433
:101A400094401C4201D0012000E0002010BD38B5B8
:101A5000002000900024002500BF3120FFF7DBFFAD
:101A600005460098401C00900098B0F5A06F01D08A
:101A7000002DF2D03120FFF7CEFF08B1012400E0A5
:101A80000024204638BD014600209F4A106820F0FF
:101A9000F80040EAC100106070479E490860704736
:101AA00002460020984B586820F47C1042EA01035B
:101AB0001843954B58607047964908667047014631
:101AC0000020914A506820F003000843506070479E
:101AD0008D48406800F00C007047014600208A4A9B
:101AE000506820F0F0000843506070470146002025
:101AF000854A506820F4E060084350607047014612
:101B00000020814A506820F4605040EAC1005060D3
:101B1000704729B17C4A527A02437B4B5A7204E0E7
:101B2000794A527A8243784B5A7270477A490860F0
:101B3000704701460020744A506820F44040084332
:101B4000506070470021754A11706F4A82F820106A
:101B5000012802D0042808D103E001216F4A117046
:101B600004E005216D4A117000E000BF00BF70471E
:101B70006B49086070476449096A0143624A11620F
:101B80007047674944390860704730B5002100222A
:101B9000002400235C4D6D6805F00C0121B104297F
:101BA00005D0082923D105E05E4D056022E05D4D9A
:101BB00005601FE0544D6D6805F47012524D6D685C
:101BC00005F48034022505EB92421CB9564D55436D
:101BD00005600BE04C4D6D6815F4003F03D0524D8D
:101BE0005543056002E04F4D5543056002E04D4D01
:101BF000056000BF00BF444D6D6805F0F0010909A4
:101C00004A4D6B5C0568DD4045603F4D6D6805F4ED
:101C1000E061090A454D6B5C4568DD4085603A4DE1
:101C20006D6805F46051C90A404D6B5C4568DD4044
:101C3000C560354D6D6805F44041890B3C4D6B5CCA
:101C4000C568B5FBF3F5056130BD29B12E4A52696F
:101C500002432D4B5A6104E02B4A526982432A4BBE
:101C60005A61704729B1284A92690243264B9A610A
:101C700004E0254A92698243234B9A61704729B157
:101C8000214AD2690243204BDA6104E01E4AD2693C
:101C900082431D4BDA61704729B11B4AD268024367
:101CA000194BDA6004E0184AD2688243164BDA60B6
:101CB000704729B1144A12690243134B1A6104E0B8
:101CC000114A12698243104B1A6170471449403916
:101CD000086070470F49C86470470B49C871704766
:101CE0000948406A40F080700749486270470146E1
:101CF0000020054A92680A4201D0012000E000203D
:101D00007047014988727047001002400000FFF8D8
:101D1000FFFFF6FE00004242D8004242201002407F
:101D20008004424200127A0000093D004800002071
:101D300058000020704700BFFEE700BFFEE700BF6D
:101D4000FEE700BFFEE770477047704710B5FFF72A
:101D500072FB10BD0648804706480047FEE7FEE7D5
:101D6000FEE7FEE7FEE7FEE7FEE7FEE7FEE7FEE74B
:101D70003915000831010008D2B201E000F8012B4A
:101D8000491EFBD270470022F6E710B513460A46FB
:101D900004461946FFF7F0FF204610BD064C074DDC
:101DA00006E0E06840F0010394E80700984710342B
:101DB000AC42F6D3FEF7C0F9101E0008301E000832
:101DC000014A024900F013B83D1300082400002026
:101DD00002E008C8121F08C1002AFAD170477047F4
:101DE000002001E001C1121F002AFBD170472DE93C
:101DF000F04116460F460446002503E03946B04739
:101E00006D1C641C20780028F8D12846BDE8F081BC
:101E1000301E0008000000205C000000D01D0008FB
:101E20008C1E00085C00002004070000E01D000874
:101E3000FFFFFFFFFFFF20122003093087982012C9
:101E40002003093087982112200309308798000069
:101E50000000000000000000000000000000000082
:101E60000000000000A24A04000000000000000082
:101E70000102030406070809000000000102030430
:0C1E80000102030406070809020406081A
:0400000508000131BD
:00000001FF
