:020000040800F2
:10000000780D00200D370008510300085303000845
:10001000570300085B0300085F03000800000000AE
:100020000000000000000000000000006303000862
:10003000650300080000000067030008F30F0008D4
:100040002737000827370008273700082737000818
:100050002737000827370008273700082737000808
:1000600027370008273700082737000827370008F8
:1000700027370008273700082737000827370008E8
:1000800027370008273700082737000827370008D8
:1000900027370008273700082737000827370008C8
:1000A00027370008273700082737000827370008B8
:1000B000ED0F00084B120008BD1600082737000896
:1000C0002737000827370008273700082737000898
:1000D00027370008F7050008C1090008990B000838
:1000E0002737000827370008273700082737000878
:1000F0002737000827370008273700082737000868
:100100002737000827370008273700082737000857
:100110002737000827370008EF0F0008F10F000805
:100120002737000827370008273700082737000837
:1001300000F002F800F05FF80AA090E8000C82449A
:100140008344AAF10107DA4501D100F054F8AFF277
:10015000090EBAE80F0013F0010F18BFFB1A43F0A5
:10016000010318475C3B00007C3B00000A444FF051
:10017000000C10F8013B13F0070408BF10F8014B06
:100180001D1108BF10F8015B641E05D010F8016B4B
:10019000641E01F8016BF9D113F0080F1EBF10F8AF
:1001A000014BAD1C0C1B09D16D1E58BF01F801CBD2
:1001B000FAD505E014F8016B01F8016B6D1EF9D555
:1001C0009142D6D37047000000230024002500266A
:1001D000103A28BF78C1FBD8520728BF30C148BFAA
:1001E0000B607047642903F0F182002070471FB54F
:1001F0001FBD10B510BD03F0F5FB1146FFF7F7FF6B
:1002000000F008F803F013FC03B4FFF7F2FF03BC9F
:1002100000F02DFD00BF4FF4A06001F07DFF01F064
:1002200009FC002001F0EFFC41F61F41272000F0FF
:100230002EFF00F087F900F00AFC012001F0E3FC3A
:1002400001F088FB022001F0DEFC01F031F903200F
:1002500001F0D9FC01F03AF8042001F0D4FC01F0DF
:100260007EF8052001F0CFFC01F06EF9062001F0C8
:10027000CAFC01F088FA072001F0C5FC41F61F41D5
:1002800040F6B73001F090F901F0F0FC28A003F03F
:100290005DFA01212B4802F05BFF01212A4802F0A0
:1002A00057FF00F04CFD0DE001F03DFC00F0B8FD03
:1002B0002648006830B900F05EFD00F040FD0120E6
:1002C00022490860F0E74FF0E021096921F00401BC
:1002D0004FF0E022116100219161C1004FF47A7268
:1002E00051434FF0E02251611146096941F001018B
:1002F000116100BF4FF0E021096911F4803FF9D08E
:100300004FF0E021096921F001014FF0E022116175
:1003100000219161704700B5034603E04FF47A7005
:10032000FFF7D1FF1800A3F101018BB2F6D100BD98
:1003300053797374656D2053756363657373667564
:100340006C0A000000080040000C0040180000206B
:10035000704700BFFEE700BFFEE700BFFEE700BF3B
:10036000FEE77047704770470CB500200190009081
:100370006B48006840F480306949086000BF6848F5
:10038000006800F4003000900198401C0190009833
:1003900018B90198B0F5A06FF1D16148006810F468
:1003A000003F02D00120009001E000200090009862
:1003B000012842D15B48006840F0100059490860AC
:1003C0000846006820F0030008600846006840F016
:1003D0000200086052484068514948600846406839
:1003E00048600846406840F48060486008464068BD
:1003F00020F47C1048600846406840F4E8104860EB
:100400000846006840F08070086000BF44480068FB
:1004100010F0007FFAD04248406820F003004049C5
:1004200048600846406840F00200486000BF3C4811
:10043000406800F00C000828F9D10CBD10B5FFF79A
:1004400093FF10BD10B53648006840F001003449F4
:100450000860084640683449084031494860084609
:100460000068324908402E4908600846006820F4B8
:10047000802008600846406820F4FE0048604FF481
:100480001F008860FFF7DAFF4FF00060284908601E
:1004900010BD10B5002100200022214B5B6803F045
:1004A0000C0121B1042906D0082928D107E0214BED
:1004B000214C236027E01F4B1F4C236023E0184B87
:1004C0005B6803F47010164B5B6803F48032022300
:1004D00003EB904022B9194B4343174C23600DE0C6
:1004E0000F4B5B6813F4003F04D0144B4343124C92
:1004F000236003E00F4B43430F4C236003E00D4B9D
:100500000D4C236000BF00BF054B5B68C3F30313B2
:100510000B4CE15C084B1B68CB40074C236010BDC3
:1005200000100240002002400000FFF8FFFFF6FE2E
:1005300008ED00E000127A000000002000093D00F4
:10054000040000204FF48050F749896941F001010F
:10055000F54A9161F549496821F00401F34A516077
:10056000F149896941F00401EF4A9161F049096854
:1005700021F47F61EE4A11601146096841F0B00133
:1005800011601146096841F480611160E64989698A
:1005900041F48041E44A91612C21E64A1180002116
:1005A000121D1180121D11804FF46A61E14A121F61
:1005B00011802021E04A116000E000BF0100A0F19D
:1005C0000100FAD1DB49098841F40051D94A118070
:1005D000704710B502460B460021002000BF02E024
:1005E000545C6040491C9942FADB10BDD148083880
:1005F0000088C0B2704710B5CE480C38008810F0A3
:10060000200F71D0FFF7F2FFCC49CD4A1278885401
:10061000CB480078401CCA49087008460078401E44
:10062000C649085C7B286FD108460078B728FAD104
:10063000C3480078801EC1B2C048FFF7CAFF80F0EF
:100640007B01BF480078801EBC4A105C814270D19B
:100650001046407821280DD1BA480068401C0A2174
:1006600090FBF1F201FB1200B6490860B3488078B4
:10067000B5490860B1484078222875D1B348006870
:10068000401C0A2190FBF1F201FB1200AF49086007
:10069000AA488078AE49086008460068212824D01E
:1006A0000EDC042855D006DC012843D0022846D0B1
:1006B000032858D148E0052850D0122853D10EE025
:1006C000412827D006DC222814D0312817D0322820
:1006D00049D11AE0422822D0522844D124E00221F4
:1006E000012000F04FFC3EE048E00121022000F034
:1006F00049FC38E00221084600F044FC33E00121C7
:10070000032000F03FFC2EE031E00221032000F046
:1007100039FC28E00121042000F034FC23E0022110
:10072000042000F02FFC1EE00221052000F02AFC2E
:1007300019E019E00021012000F024FC13E0002161
:10074000022000F01FFC0EE00021032000F01AFC44
:1007500009E00021042000F015FC04E00021052040
:1007600000F010FC00BF00BF0020754908707448FD
:1007700000787B2802DB00207149087010BD00BFA3
:100780006C490C39098811F0800FF9D0C0F30801C9
:10079000684A083A118070472DE9F043C1B0064617
:1007A0000F46904608F1040084B20025A9464FF494
:1007B000807101A803F065F8FF2C02DD41B0BDE8AF
:1007C000F083B7208DF804008DF80570002513E044
:1007D00045B1012D06D04846411C1FFA81F9305C15
:1007E00001A94855A01E01A9085C495D4840A11E09
:1007F00001AA5054681C85B2A01EA842E8DC7B21E7
:10080000601E01AA1154A01E01A9085C611E515C62
:100810004840A11E5054002506E029466A1C95B2A6
:1008200001AA505CFFF7ABFFA542F6DB00BFC5E7AE
:1008300040480C38008810F0200F01D0012070478C
:100840000020FCE74FF480503749896941F00101ED
:10085000354A91613549496821F00801334A5160B0
:100860003149896941F004012F4A91613049091FDA
:10087000096821F47F412E4A121F11601146096850
:1008800041F4306111601146096841F48041116002
:100890002549C96941F40031234AD1612C212D4AEF
:1008A00011800021121D1180121D11804FF46A6108
:1008B000284A121F118040211F4A116000E000BF2A
:1008C0000100A0F10100FAD12249098841F4005148
:1008D000204A1180704700BF1E490C39098811F069
:1008E000800FF9D0C0F308011A4A083A1180704706
:1008F0002DE9F043C1B006460F46904608F10400CA
:1009000084B20025A9464FF4807101A802F0B9FF16
:10091000FF2C02DD41B0BDE8F083B7208DF8040064
:100920008DF8057000252BE000100240000001400A
:10093000040801400C38014004E100E0E803002015
:1009400014000020200000201800002024000020B7
:100950001C0000200C44004045B1012D06D0484643
:10096000411C1FFA81F9305C01A94855A01E01A95C
:10097000085C495D4840A11E01AA5054681C85B21C
:10098000A01EA842E8DC7B21601E01AA1154A01E13
:1009900001A9085C611E515C4840A11E505400250D
:1009A00006E029466A1C95B201AA505CFFF793FF46
:1009B000A542F6DB00BFADE7AE480088C0B2704785
:1009C00010B5AC48001F008810F0200F34D0FFF79E
:1009D000F3FFA949A94A12788854A8480078401C16
:1009E000A649087008460078401EA349085C7B2889
:1009F0001BD108460078B72817D1A0480078801E80
:100A0000C1B29D48FFF7E5FD80F07B019B4800786F
:100A1000801E994A105C814204D10122032197482B
:100A2000FFF766FF002095490870944800787B28FE
:100A300002DB00209149087010BD8E48001F00881D
:100A400010F0200F01D0012070470020FCE74FF488
:100A500080508B49896941F00101894A9161894936
:100A6000496841F01001874A51608549896941F020
:100A70000401834A91618449496821F47F41824A93
:100A800051601146496841F430615160114649682E
:100A900041F4804151607A49C96941F48021784A22
:100AA000D1612C21794A11800021121D1180121D63
:100AB00011804FF46A61754A121F11808021744AB7
:100AC000116000E000BF0100A0F10100FAD16F4900
:100AD000098841F400516D4A1180704700BF6B498D
:100AE0000C39098811F0800FF9D0C0F30801674A6A
:100AF000083A118070472DE9F043C1B006460F4611
:100B0000904608F1040084B20025A9464FF4807194
:100B100001A802F0B6FEFF2C02DD41B0BDE8F08373
:100B2000B7208DF804008DF80570002513E0A01E95
:100B300001A9085C495D4840A11E01AA505445B175
:100B4000012D06D04846411C1FFA81F9305C01A9ED
:100B50004855681C85B2A01EA842E8DC7B21601EB7
:100B600001AA1154A01E01A9085C611E515C4840F5
:100B7000A11E5054002506E029466A1C95B201AA20
:100B8000505CFFF7ABFFA542F6DB00BFC5E73F486F
:100B900008380088C0B2704710B53C480C3800884F
:100BA00010F0200F34D0FFF7F2FF3A493A4A12789A
:100BB000885439480078401C374908700846007846
:100BC000401E3449085C7B281BD108460078B728B2
:100BD00017D131480078801EC1B22E48FFF7F9FCCA
:100BE00080F07B012C480078801E2A4A105C8142EC
:100BF00004D1012203212848FFF77DFF0020264968
:100C00000870254800787B2802DB00202249087004
:100C100010BD1E480C38008810F0200F01D00120B4
:100C200070470020FCE710B503460C460A2B02D1A2
:100C30000D20FFF7A4FD1846FFF7A1FD10BD00B57C
:100C40000146FFF7D3FC00BD014600207047034674
:100C50000020704701460020704701464FF0FF30EA
:100C6000704700B503461846FFF789FD00BD00BF79
:100C7000FEE7000004440040E704002015000020C7
:100C80000010024000000140001001400C480040EC
:100C900004E100E0E60500201600002002468A423A
:100CA00001DA104670470846FCE710B50023062419
:100CB00001230DE0BC4850F8230018B9BB4850F898
:100CC000230020B119462046FFF7E8FF04465B1CCD
:100CD000052BEFDD204610BD02468A4201DD10469D
:100CE00070470846FCE710B5002401230DE0AE482C
:100CF00050F8230018B9AD4850F8230020B1194628
:100D00002046FFF7E9FF04465B1C052BEFDD20467C
:100D100010BD00B5FFF7E7FF002803DDFFF7E3FF95
:100D2000052801DD012000BD0020FCE700B5FFF72C
:100D3000F0FF08B1012000BDFFF7B7FFFBE710B5DA
:100D40009B48006818B901209949086007E000F045
:100D5000EDFB002000F0A2FD032000F09FFD02202B
:100D6000FFF7D9FA00F0CEFA032000F065FB04206B
:100D700000F062FB10BD10B500F0C4FA012000F0D5
:100D80005BFB4FF4FA70FFF79EFA022000F054FB71
:100D900000F0D3FB002000F081FD042000F07EFD78
:100DA0000220FFF7B8FA0520FFF7B5FA10BD10B51D
:100DB0000446FFF7E0FF00207C4941F824007DA0B5
:100DC00002F0C4FCFFF7BBFF10BD10B50446FFF7EF
:100DD000D2FF754850F82400801E734941F8240062
:100DE00076A002F0B3FCFFF7AAFF10BD00B5FFF735
:100DF00090FF08B1012000BDFFF775FFFBE710B5BC
:100E00000446FFF7B8FF684850F82400401E6649C2
:100E100041F824006CA002F099FCFFF790FF10BD90
:100E200010B56C4801686CA002F090FC694800683D
:100E3000012805D1002000F031FD032000F02EFD37
:100E400046E0644800686849086057486149096895
:100E500050F82100012806D053485E49096850F82F
:100E60002100032805D100F04DFA5A480068FFF729
:100E7000C6FF4E485749096850F8210018B1554837
:100E80000068FFF794FFFFF7B1FF524909688842F5
:100E90001DDD002000F002FD012000F0FFFC4FF4FA
:100EA000B471012000F0D0F84A480068401C49495C
:100EB0000860084600684C4908604648016846A03A
:100EC00002F044FC4348006800F0E2FA00E005E06C
:100ED000FFF78CFF3F4909688842B2DA00BF44E05F
:100EE0003C480068404908602F483A49096850F872
:100EF0002100022806D02C483649096850F8210004
:100F0000032803D133480068FFF75FFF27483149C2
:100F1000096850F8210018B12E480068FFF747FF14
:100F2000FFF704FF2B49096888421DDA002000F012
:100F3000B5FC022000F0B2FC4FF4B471022000F0C6
:100F400083F824480068401E22490860084600686B
:100F5000254908601F4801681FA002F0F7FB1D48E3
:100F6000006800F095FA00E005E0FFF7DFFE1949A0
:100F700009688842B4DD00BF1648016816A002F077
:100F8000E5FB10BD00280DDD05280BDC002905DD83
:100F9000032903DC044A42F8201003E00122034B3A
:100FA00043F8202070470000E806002000070020DA
:100FB00038000020CBCDBFCD0A000000CFC2D0D07A
:100FC000BDD3BFCD0A000000C9CFD0D0BDD3BFCDA7
:100FD0000A000000340000206E6F774C6576656C67
:100FE0003A25640A0000000058000020704770474E
:100FF0007047704708B54FF4A06001F08DF80120EC
:101000008DF801008DF802001D208DF800000120F0
:101010008DF80300684601F084F808BD10B5002083
:10102000964908600120964908604FF000009549F4
:10103000C1F89401944908609249C1F89C010146A5
:10104000924802F085F810BD2DE9F04781460C4624
:1010500000208A4908608E48C0F80090204602F0BF
:101060001EFD07468B4A8C4B02F02CFD054602F014
:10107000E9FC84B20121854802F06AF800BF7F488C
:101080000068A042FBDBFFF7C9FFBDE8F0877FB532
:1010900005460C460121042001F0C2FB012102207B
:1010A00001F0CBFBF020ADF80C0010208DF80F0004
:1010B00003208DF80E0003A9784801F0FBF873486F
:1010C00001F016FCADF80450ADF800400020ADF87A
:1010D0000600ADF8020069466C4801F0DDFC012213
:1010E00011466A4802F04FF8FFF784FF0021674875
:1010F00002F02EF83C210120FFF7A6FF0A20FFF79F
:10110000E2F83C210220FFF79FFF01205C490860C4
:101110004FF000005B49C1F894015B4908605949F0
:10112000C1F89C017FBD5E480068012806D00228F6
:1011300011D003281CD0042838D126E000205949BA
:1011400008604FF001004F49C1F894014FF00200D0
:10115000534908602EE00020494908604FF0010023
:101160004849C1F898014FF003004D49086021E05B
:1011700000204D4908604FF001004249C1F89C0130
:101180004FF004004649086014E000203E49086022
:101190004FF001003B49C1F89001414908603748D0
:1011A000006800F101003549086003E001203C4976
:1011B000086000BF00BF70473C480068012806D0A7
:1011C000022811D003281CD0042838D126E00020A2
:1011D000354908604FF001002A49C1F89C014FF0E1
:1011E0000200324908602EE00020254908604FF0D7
:1011F00001002449C1F898014FF003002B49086011
:1012000021E00020274908604FF001001D49C1F886
:1012100094014FF004002549086014E000201A49A9
:1012200008604FF001001749C1F890011F4908609C
:101230001248006800F101001049086003E0012035
:101240001A49086000BF00BF704710B501210F4860
:1012500002F047FA80B101210C4802F053FA0C4821
:101260000068012802D1FFF75EFF05E0084800682A
:10127000022801D1FFF7A0FF10BD000048000020A8
:1012800090012142000021429801214200040040C7
:101290004C000020E4388EE3388EF73F0008014010
:1012A000500000209C012142940121425400002062
:1012B0001948006820F00800174908607047164870
:1012C000006840F0080014490860704710B51348E2
:1012D000806940F00400114988610F480C380068AB
:1012E00020F470400C490C3908600846006840F44E
:1012F00080500860FFF7E3FF0120FFF70CF8FFF7CD
:10130000D7FF10BD10B5FFF7DAFF6420FEF7DBFF53
:10131000FFF7CEFF10BD00000C0801400010024096
:1013200010B5584B1B6823F00703564C2360012867
:1013300004D123461B6843F001032360012905D132
:10134000504B1B6843F002034E4C2360012A05D129
:101350004C4B1B6843F004034A4C236010BD10B58E
:101360004948806940F004004749886145480C3885
:1013700000686FF30B0043490C39086008460068A9
:1013800040F2111108433F490C3908600022114610
:101390001046FFF7C5FF3C48806940F004003A4919
:1013A0008861384808380068C0F3130035490839A7
:1013B0000860084600683549084332490839086022
:1013C000002211460120FFF7ABFF4FF4FA70FEF741
:1013D0007AFF002201211046FFF7A2FF4FF4FA70B6
:1013E000FEF771FF012200210846FFF799FF4FF435
:1013F000FA70FEF768FF002201210846FFF790FF10
:101400004FF4FA70FEF75FFF012200211046FFF74C
:1014100087FF4FF4FA70FEF756FF012211460020B5
:10142000FFF77EFF4FF4FA70FEF74DFF00221146E2
:101430001046FFF775FF10BD10B50446012C00D112
:1014400000E00020032C01D1012100E0002108432D
:1014500008D0012200210846FFF762FF0120FEF7B5
:101460005AFF0EE0022C05D1002201211046FFF7A1
:1014700057FF06E0042C04D1002211460120FFF79B
:101480004FFF10BD0C080140001002400000101179
:101490002149096821F4FE411F4A1160114609687B
:1014A0001E4A52F8202041EA02211B4A116070476F
:1014B00010B51B48806940F008001949886116483A
:1014C0000838006800F07040134908390860084681
:1014D0000068144908431049083908600E4800683C
:1014E00040F4FE400C49086000200F4908600BE002
:1014F0000D480068FFF7CCFF6420FEF7E4FE0A48C1
:101500000068401C08490860074800681028EFDBA5
:101510000E20FFF7BDFF10BD0C0C01405C00002049
:1015200000100240111111019C0000201B480068AE
:1015300020F480701949086070471848006840F42A
:10154000807016490860704710B51548806940F0F2
:1015500004001349886111480838006820F00F0022
:101560000E49083908600846006840F0010008602C
:101570000BE0FFF7E2FF4FF4FA70FEF7A4FEFFF76F
:10158000D5FF4FF4FA70FEF79EFE0648016800682A
:10159000401E044A10600029EBD110BD0C08014028
:1015A00000100240A00000207FB505460C465548BB
:1015B000806940F02400534988615348006820F452
:1015C0007040514908600846006840F400400860D7
:1015D0004E48006820F470404C4908600846006896
:1015E00040F4004008600121042001F026F9484839
:1015F00001F07EF9A8B2ADF80800A0B2ADF8040081
:101600000020ADF80A00ADF8060001A9404801F03D
:1016100043FA012211463E4801F0B5FD4FF4A060A7
:1016200000F07AFD02208DF8010001208DF8020003
:101630001E208DF8000001208DF80300684600F0A0
:1016400070FD0021324801F083FD7FBD2F48083036
:101650000068C0F3C00070472B48001D0068C0F34D
:10166000C020704710B5FFF7F1FF2A49087001222A
:1016700003212848FFF73FFA26480078012803D1C4
:10168000042000F04FF802E0032000F04BF810BDFA
:1016900010B5FFF7E1FF20490870012204211E4820
:1016A000FFF729FA1C480078012803D1022000F036
:1016B00039F802E0012000F035F810BD10B5002423
:1016C0000121134802F00DF8D8B10121104802F0B1
:1016D00019F81248006838B9FFF7DAFF0F480068B8
:1016E000401C0E49086008E00C480068012804D13D
:1016F000FFF7B8FF00200949086009480068FFF7B4
:10170000C7FE10BD00100240040801400014014053
:1017100000080040A6000020A5000020A80000202E
:101720005800002030B93949096841F00301374AAF
:10173000116027E001280BD13449096841F0030109
:10174000324A11601146096821F00101116019E067
:10175000022806D12D49096821F003012B4A1160A6
:1017600010E0032806D12949096821F00401274A1D
:10177000116007E0042805D12449096841F00401FB
:10178000224A1160704770B50024092520488069FD
:1017900040F020001E4988611C480C3800686FF337
:1017A0000B001A490C3908600846006840F2111114
:1017B000084316490C39086019E0144800680121F3
:1017C000A1408843114908606420FEF77CFD0F4862
:1017D00000680121A14008430C4908606420FEF71D
:1017E00072FD601C032190FBF1F201FB1204280042
:1017F000A5F10105E1D10548006840F00400034966
:1018000008600120FFF78EFF70BD00000C1401403E
:10181000001002406A48006840F002006849086011
:1018200070476748006840F00400654908607047E9
:101830006348006820F00400614908607047604810
:10184000006820F002005E490860704700B502465B
:10185000FFF7F5FF082310E0FFF7EAFFD00958492A
:1018600008605848006800F00100574908705006A9
:10187000020EFFF7D6FF581EC3B2012BECDA00BDF3
:1018800030B505460C46FFF7DAFF2846FFF7DEFFC6
:101890002046FFF7DBFFFFF7BDFF30BD30B5054643
:1018A000002401243DE035B9621E484B995CE0B24A
:1018B000FFF7E6FF34E0052D06D1621E444B995C2C
:1018C000E0B2FFF7DDFF2BE0062D06D1621E414B93
:1018D000995CE0B2FFF7D4FF22E0012D06D1621E31
:1018E0003D4B995CE0B2FFF7CBFF19E0022D06D12A
:1018F000621E3A4B995CE0B2FFF7C2FF10E0042D84
:1019000006D1621E364B995CE0B2FFF7B9FF07E0E3
:10191000032D05D1621E334B995CE0B2FFF7B0FF97
:10192000641C092CBFDB30BD00B500210920FFF786
:10193000A7FF03210A20FFF7A3FF07210B20FFF7D2
:101940009FFF01210C20FFF79BFF00210F20FFF7D5
:1019500097FF00BD10B52448806940F00800224977
:10196000886117480C3800686FF30B0014490C3974
:1019700008600846006840F21111084310490C390C
:101980000860FFF7D1FF0EE00520FFF787FF642016
:10199000FEF799FC0020FFF781FF0620FFF77EFF8E
:1019A0006420FEF790FC114801680068401E0F4A51
:1019B00010600029E8D10520FFF770FF10BD00007E
:1019C0000C0C01400C080140E4000020AC00002099
:1019D000D4000020DC000020B4000020BC00002067
:1019E000C4000020CC00002000100240E8000020CD
:1019F00010B504460020FE490860FE49C1F89C016C
:101A0000FD4908604FF00200FEF75DFCFB480460F2
:101A10000520FEF758FC0120F649C1F89801052081
:101A2000FEF751FC0020F44908604FF00500FEF776
:101A30004AFC10BD10B5F248406820F0E060F04963
:101A400048600846406840F080604860ED48806922
:101A500040F08000EB4988610846806940F0100042
:101A60008861E948406820F0FF00E749486008467F
:101A7000006820F07F4008600846406840F033006E
:101A800048600846006840F04C5008600846C0684E
:101A900040F47070C860D9480C3800680020D749FD
:101AA0000C3908600846006840F033300860D348BD
:101AB000006840F0FF00D14908600520FEF703FCF4
:101AC0003820FFF795FF3820FFF792FF0820FFF737
:101AD0008FFF0120FFF78CFF0620FFF789FF0C2006
:101AE000FFF786FF10BD10B504460120C04908600D
:101AF0004FF00000BF49C1F89C01BF4908604FF09A
:101B00000200FEF7E0FBBD4804600520FEF7DBFBAA
:101B10000120B849C1F898010520FEF7D4FB002048
:101B2000B549086010BD70B5002400250120FFF7FD
:101B30005FFF8020FFF75CFFB449B54A126801EBF4
:101B4000021001F07FFE054600BF08E0AF49B04A31
:101B5000126801EB0211085DFFF7C5FF641CAC427F
:101B6000F4DBAC48006801280ED1A9480068401C8D
:101B7000A749086008460068062815D105200860B6
:101B80000020A44908600FE0A248006860B9A0489E
:101B90000068401E9E49086008460068401C03D14A
:101BA000086001209B490860C020FFF721FF9A4888
:101BB00001F048FE0546002404E09749085DFFF760
:101BC00092FF641CAC42F8DB944909783031C8B20A
:101BD000FFF789FF9048103001F034FE05460024DD
:101BE00005E08D491031085DFFF77DFF641CAC42B4
:101BF000F7DB8B4909783031C8B2FFF774FF012059
:101C0000FEF789FB70BD70B5054600240026012053
:101C1000FFF7EEFE8320FFF7EBFE824901EB051094
:101C200001F010FE064600BF06E07E4901EB0511FB
:101C3000085DFFF758FF641CB442F6DBC720FFF7CE
:101C4000D7FE794901EB051001F0FCFD06460024A2
:101C500006E0754901EB0511085DFFF744FF641CC0
:101C6000B442F6DB6420FEF72EFB70BD70B5002495
:101C700000258020FFF7BCFE6C4801F0E3FD05461F
:101C800000BF04E06949085DFFF72DFF641CAC420A
:101C9000F8DB4FF4FA70FEF716FBC020FFF7A8FE42
:101CA0006248103001F0CEFD0546002405E05F4992
:101CB0001031085DFFF717FF641CAC42F7DB4FF4EF
:101CC000FA70FEF700FB0120FFF792FE8020FFF77D
:101CD0008FFE5648203001F0B5FD0546002405E092
:101CE00052492031085DFFF7FEFE641CAC42F7DB71
:101CF0004FF4FA70FEF7E7FA0120FFF779FE802033
:101D0000FFF776FE4A4801F09DFD0546002404E0F9
:101D10004749085DFFF7E7FE641CAC42F8DB4FF46F
:101D2000FA70FEF7D0FAC020FFF762FE404810308C
:101D300001F088FD0546002405E03D491031085DAD
:101D4000FFF7D1FE641CAC42F7DB4FF4FA70FEF7EC
:101D5000BAFA0120FFF74CFE8020FFF749FE344815
:101D6000203001F06FFD0546002405E030492031A8
:101D7000085DFFF7B8FE641CAC42F7DB4FF4FA7065
:101D8000FEF7A1FA0120FFF733FE8020FFF730FEB7
:101D9000284801F057FD0546002404E02549085D68
:101DA000FFF7A1FE641CAC42F8DB4FF4FA70FEF7BB
:101DB0008AFAC020FFF71CFE1E48103001F042FDD9
:101DC0000546002405E01B491031085DFFF78BFE36
:101DD000641CAC42F7DB4FF4FA70FEF774FA012092
:101DE000FFF706FE8020FFF703FE1248203023E0B5
:101DF000A001224200002242980122420C1C014014
:101E00000000014000100240001001404403002087
:101E1000CC030020D0030020A403002020000020D9
:101E2000240000200401002084010020040200207E
:101E3000340200206402002001F004FD0546002465
:101E400004E0AD49085DFFF74EFE641CAC42F8DBD0
:101E50004FF4FA70FEF737FAC020FFF7C9FDA64825
:101E6000103001F0EFFC0546002405E0A2491031D6
:101E7000085DFFF738FE641CAC42F7DB4FF4FA70E4
:101E8000FEF721FA0120FFF7B3FD8020FFF7B0FD38
:101E90009A4801F0D7FC0546002404E09749085D04
:101EA000FFF721FE641CAC42F8DB4FF4FA70FEF73A
:101EB0000AFAC020FFF79CFD9048103001F0C2FCE8
:101EC0000546002405E08D491031085DFFF70BFE43
:101ED000641CAC42F7DB4FF4FA70FEF7F4F9012012
:101EE000FFF786FD8020FFF783FD8448203001F056
:101EF000A9FC0546002405E080492031085DFFF774
:101F0000F2FD641CAC42F7DB4FF4FA70FEF7DBF92C
:101F10000120FFF76DFD8020FFF76AFD784801F092
:101F200091FC0546002404E07549085DFFF7DBFDE0
:101F3000641CAC42F8DB4FF4FA70FEF7C4F9C02021
:101F4000FFF756FD6E48103001F07CFC054600247A
:101F500005E06B491031085DFFF7C5FD641CAC421C
:101F6000F7DB4FF4FA70FEF7AEF90120FFF740FD02
:101F70008020FFF73DFD6248203001F063FC0546FC
:101F8000002405E05E492031085DFFF7ACFD641CCC
:101F9000AC42F7DB4FF4FA70FEF795F90120FFF73A
:101FA00027FD8020FFF724FD564801F04BFC054635
:101FB000002404E05349085DFFF795FD641CAC4222
:101FC000F8DB4FF4FA70FEF77EF9C020FFF710FD42
:101FD0004C48103001F036FC0546002405E0494924
:101FE0001031085DFFF77FFD641CAC42F7DB4FF456
:101FF000FA70FEF768F90120FFF7FAFC4020FFF7BE
:10200000F7FC002404E04049085DFFF76CFD641C08
:10201000182CF8DB0A20FEF756F98020FFF7E8FCC1
:102020003720FFF760FD2E20FFF75DFD3220FFF720
:102030005AFD3020FFF757FD3220FFF754FD3020C6
:10204000FFF751FD0520FEF73EF930490878FFF70C
:102050004AFD0520FEF737F93120FFF744FD322015
:10206000FFF741FD0520FEF72EF928494878FFF7D4
:102070003AFD0520FEF727F93120FFF734FD322025
:10208000FFF731FD0520FEF71EF920498878FFF79C
:102090002AFD0520FEF717F94FF4FA70FEF713F941
:1020A0000120FFF7A5FC8020FFF7A2FC184801F0F3
:1020B000C9FB0546002404E01549085DFFF713FD40
:1020C000641CAC42F8DB4FF4FA70FEF7FCF8C72052
:1020D000FFF78EFC0F4801F0B5FB0546002404E035
:1020E0000C49085DFFF7FFFC641CAC42F8DB642080
:1020F000FEF7E9F870BD000084020020A402002071
:10210000D402002004030020EC000020C4030020BF
:10211000240300203403002031490143314A116077
:10212000704770B5002100230F22C4780CB32D4CEA
:10213000246804F4E064C4F5E064210AC1F10403F6
:10214000CA40447804FA03F1847814402143090119
:10215000254C0678A155047804F01F050124AC40F5
:1021600005786D114FF0E02606EB8505C5F80041B6
:1021700009E0047804F01F050124AC401B4D0678EB
:10218000761145F8264070BD194A0A400243154BA6
:102190001B1F1A60704739B1124A121D12680243A0
:1021A000104B1B1D1A6006E00E4A121D1268824376
:1021B0000C4B1B1D1A607047042808D14FF0E0211A
:1021C000096941F004014FF0E022116107E04FF08E
:1021D000E021096921F004014FF0E022116170470C
:1021E0000000FA050CED00E000E400E080E100E012
:1021F00080FFFF1F10B50446CA48844208D1012160
:10220000042000F027FB0021042000F023FB46E01F
:10221000C548844208D10121082000F01BFB0021A1
:10222000082000F017FB3AE0C048844208D10121A1
:10223000102000F00FFB0021102000F00BFB2EE01F
:10224000BB48844208D10121202000F003FB00217B
:10225000202000F0FFFA22E0B648844208D1012194
:10226000402000F0F7FA0021402000F0F3FA16E0D9
:10227000B148844208D10121802000F0EBFA00210E
:10228000802000F0E7FA0AE0AC48844207D101213F
:10229000801500F0DFFA0021A01500F0DBFA10BD78
:1022A00010B50121084600F0D5FA0021012000F008
:1022B000D1FA10BD2DE9F04102460025002600208C
:1022C00000230024002791F803C00CF00F0591F8BB
:1022D00003C01CF0100F03D091F802C04CEA0505B2
:1022E00091F800C0BCF1000F31D0146800202BE041
:1022F0004FF0010C0CFA00F3B1F800C00CEA030631
:102300009E4220D183004FF00F0C0CFA03F7BC4320
:1023100005FA03FC4CEA040491F803C0BCF1280F51
:1023200006D14FF0010C0CFA00FCC2F814C00AE010
:1023300091F803C0BCF1480F05D14FF0010C0CFA25
:1023400000FCC2F810C0401C0828D1D31460B1F8BA
:1023500000C0BCF1FF0F34DD546800202EE000F116
:10236000080C4FF0010808FA0CF3B1F800C00CEAB1
:1023700003069E4221D183004FF00F0C0CFA03F7A5
:10238000BC4305FA03FC4CEA040491F803C0BCF119
:10239000280F05D100F1080C08FA0CF8C2F81480D7
:1023A00091F803C0BCF1480F07D100F1080C4FF0C1
:1023B000010808FA0CF8C2F81080401C0828CED397
:1023C0005460BDE8F0814FF6FF71018002218170F9
:1023D0000421C17070470246002093680B4201D06F
:1023E000012000E0002070470146886880B27047F5
:1023F00002460020D3680B4201D0012000E00020FB
:1024000070470146C86880B27047016170474161FA
:1024100070470AB1016100E041617047C1607047D7
:102420004FF480320A4382618161826182698269EC
:10243000704702460020424B18684FF680731840E0
:1024400040EA021008433E4B186070473D49C8619E
:102450007047F0B50A46002300240021002500F053
:102460000046B6F1004F02D1354EF16901E0344E1D
:102470007168C0F3034583B200F44016B6F5401FFF
:1024800008D121F070612E4E766826F070662C4FD0
:102490007E6012E000F48016B6F5801F06D1032698
:1024A00006FA05F4A14341F0706106E0460D3601DD
:1024B00003FA06F6B14341F0706122B1460D3601D0
:1024C00003FA06F6314300F00046B6F1004F02D1A0
:1024D0001B4EF16101E01A4E7160F0BD30B5002273
:1024E0008B071C0F0F2303FA04F2154B08338C10D3
:1024F00053F824309343124C08348D1044F825309F
:1025000023468C1053F824308C07240F00FA04F46F
:1025100023430B4C08348D1044F8253030BD0A4954
:102520000860704700080140000C014000100140A5
:102530000014014000180140001C0140002001402F
:102540000000014000002042DC002042DD4800681D
:1025500040F00100DB49086008464068DA4908405D
:10256000D849486008460068D8490840D5490860FD
:102570000846006820F4802008600846406820F47F
:10258000FE0048604FF41F0088607047CD4909681D
:1025900021F48031CB4A11601146096821F4802171
:1025A0001160B0F5803F03D0B0F5802F0ED106E06A
:1025B000C449096841F48031C24A116007E0C14949
:1025C000096841F4A021BF4A116000E000BF00BFCC
:1025D000704710B501460022002300204A11012A4D
:1025E00002D1B84C236806E0022A02D1B54C236A16
:1025F00001E0B44C636A01F01F02012494401C42C4
:1026000001D0012000E0002010BD38B5002000906E
:102610000024002500BF3120FFF7DBFF05460098AE
:10262000401C00900098B0F5A06F01D0002DF2D0B2
:102630003120FFF7CEFF08B1012400E0002420463E
:1026400038BD014600209F4A106820F0F80040EA9B
:10265000C100106070479E49086070470246002024
:10266000984B586820F47C1042EA01031843954BBC
:102670005860704796490866704701460020914AA5
:10268000506820F003000843506070478D48406850
:1026900000F00C007047014600208A4A506820F084
:1026A000F00008435060704701460020854A50689A
:1026B00020F4E06008435060704701460020814AE2
:1026C000506820F4605040EAC1005060704729B162
:1026D0007C4A527A02437B4B5A7204E0794A527A1E
:1026E0008243784B5A7270477A49086070470146B6
:1026F0000020744A506820F44040084350607047FE
:102700000021754A11706F4A82F82010012802D00A
:10271000042808D103E001216F4A117004E005216B
:102720006D4A117000E000BF00BF70476B49086040
:1027300070476449096A0143624A116270476749F8
:1027400044390860704730B500210022002400237E
:102750005C4D6D6805F00C0121B1042905D00829F4
:1027600023D105E05E4D056022E05D4D05601FE070
:10277000544D6D6805F47012524D6D6805F4803447
:10278000022505EB92421CB9564D554305600BE0FE
:102790004C4D6D6815F4003F03D0524D5543056014
:1027A00002E04F4D5543056002E04D4D056000BF0E
:1027B00000BF444D6D6805F0F00109094A4D6B5C9E
:1027C0000568DD4045603F4D6D6805F4E061090A2C
:1027D000454D6B5C4568DD4085603A4D6D6805F49C
:1027E0006051C90A404D6B5C4568DD40C560354DA0
:1027F0006D6805F44041890B3C4D6B5CC568B5FBC9
:10280000F3F5056130BD29B12E4A526902432D4BC3
:102810005A6104E02B4A526982432A4B5A6170473D
:1028200029B1284A92690243264B9A6104E0254A5D
:1028300092698243234B9A61704729B1214AD26938
:102840000243204BDA6104E01E4AD26982431D4BE9
:10285000DA61704729B11B4AD2680243194BDA602A
:1028600004E0184AD2688243164BDA60704729B1F7
:10287000144A12690243134B1A6104E0114A1269A7
:102880008243104B1A617047144940390860704701
:102890000F49C86470470B49C87170470948406ABE
:1028A00040F0807007494862704701460020054AA1
:1028B00092680A4201D0012000E0002070470149DF
:1028C00088727047001002400000FFF8FFFFF6FE1C
:1028D00000004242D800424220100240800442429E
:1028E00000127A0000093D00D4030020E403002018
:1028F00010B50446FE48844208D10121C014FFF7F8
:10290000A9FF0021E014FFF7A5FFC4E0B4F1804F58
:1029100008D101210846FFF7AAFF00210120FFF797
:10292000A6FFB8E0F348844208D101210220FFF756
:102930009EFF00210220FFF79AFFACE0EE488442A0
:1029400008D101210420FFF792FF00210420FFF7A6
:102950008EFFA0E0E948844208D101210820FFF75A
:1029600086FF00210820FFF782FF94E0E4488442BC
:1029700008D101211020FFF77AFF00211020FFF776
:1029800076FF88E0DF48844208D101212020FFF74C
:102990006EFF00212020FFF76AFF7CE0DA488442C6
:1029A00008D101214014FFF755FF00216014FFF703
:1029B00051FF70E0D548844209D10121C804FFF7D6
:1029C00049FF00214FF40020FFF744FF63E0D048A7
:1029D000844209D101210805FFF73CFF00214FF493
:1029E0008010FFF737FF56E0CA48844209D1012121
:1029F0004805FFF72FFF00214FF40010FFF72AFFD3
:102A000049E0C548844208D101214020FFF72FFF4B
:102A100000214020FFF72BFF3DE0C048844208D151
:102A200001218020FFF723FF00218020FFF71FFFF7
:102A300031E0BB48844208D101218015FFF717FF20
:102A40000021A015FFF713FF25E0B648844209D105
:102A500001210804FFF7FEFE00214FF48030FFF74C
:102A6000F9FE18E0B048844209D101214804FFF77B
:102A7000F1FE00214FF40030FFF7ECFE0BE0AB4815
:102A8000844208D101218804FFF7E4FE00214FF4BD
:102A90008020FFF7DFFE10BD00220288944B984291
:102AA0000ED0994B98420BD0B0F1804F08D0914B8B
:102AB000984205D0904B984202D0904B984204D156
:102AC0004FF68F731A404B881A438D4B984207D0AC
:102AD0008C4B984204D04FF6FF431A40CB881A43E0
:102AE00002808B8883850B880385814B98420BD0AD
:102AF000854B984208D08B4B984205D08A4B984220
:102B000002D08A4B984201D10B7A0386012383823B
:102B1000704770B5002400220023058C4FF6FE7626
:102B200035400584028C8388048B4FF68F752C40CA
:102B3000B51E2C400D882C43751E2A400D892A4352
:102B40004D882A436A4DA8420BD06F4DA84208D049
:102B5000744DA84205D0744DA84202D0734DA842CE
:102B600013D14FF6F7752A404D892A434FF6FB756E
:102B70002A408D882A434FF6FF652B404FF6FF55BC
:102B80002B408D892B43CD892B4383800483CD88B3
:102B90008586028470BD70B5002400220023058C58
:102BA0004FF6EF7635400584028C8388048B48F617
:102BB000FF752C404FF6FF452C400D884FF6FF76F1
:102BC00006EA05252C434FF6DF752A400D8906EAF3
:102BD00005152A434D8806EA05152A43444DA842A7
:102BE00002D0494DA8421DD14FF67F752A404D892C
:102BF0004FF6FF7606EA05152A434FF6BF752A40C1
:102C00008D8806EA05152A434FF6FF352B404FF213
:102C1000FF752B408D8906EA85052B43CD8906EA91
:102C200085052B4383800483CD880587028470BD8E
:102C300070B5002400220023058C4FF6FF66354056
:102C40000584028C8388848B4FF68F752C404FF659
:102C5000FC752C400D882C434FF6FF552A400D89FA
:102C60004FF6FF7606EA05252A434D8806EA052534
:102C70002A431F4DA84202D0234DA8421DD14FF236
:102C8000FF752A404D894FF6FF7606EA05252A434F
:102C90004FF6FF352A408D8806EA05252A434EF671
:102CA000FF752B404DF6FF752B408D8906EA051503
:102CB0002B43CD8906EA05152B4383808483CD8879
:102CC0008587028470BD70B5002200230024058C26
:102CD0004EF6FF7635400584038C8488828B48F657
:102CE000FF752A404FF6FF452A400D8820E000007E
:102CF000002C01400004004000080040000C00408F
:102D0000001000400014004000340140004C01401D
:102D1000005001400054014000180040001C0040D9
:102D200000200040004001400044014000480140B4
:102D30004FF6FF7606EA05252A434DF6FF752B4030
:102D40000D8906EA05352B434D8806EA05352B43E8
:102D5000FA4DA84202D0FA4DA84208D14BF6FF75B1
:102D60002C408D894FF6FF7606EA85152C4384802A
:102D70008283CD88A0F84050038470BD828B4FF2CF
:102D8000FF331A408283828B4FF6FF7303EA0123DD
:102D90001A4382837047F0B50C4615460022002185
:102DA0000026078C4EF6FF7C07EA0C070784828B0F
:102DB000018C4FF6FF7707EA043640F6FF473A40AA
:102DC0004FF6FF7707EA05273A434FF6FF7707EA02
:102DD00003373A43D94FB8420ED0D94FB8420BD03F
:102DE000B0F1804F08D0D74FB84205D0D64FB84287
:102DF00002D0D64FB84206D14DF6FF77394046F49F
:102E00008057394305E047F6FF57394044F480576F
:102E1000394382830184F0BD828B4FF6F3731A40ED
:102E20008283828B0A4382837047F0B50C46154635
:102E3000002200210026078C4FF6FF6C07EA0C07E2
:102E40000784828B018C4FF6FF7707EA04264FF642
:102E50000C773A404FF6FF7707EA03172F433A43C0
:102E6000B64FB8420ED0B64FB8420BD0B0F1804F3B
:102E700008D0B44FB84205D0B34FB84202D0B34FD8
:102E8000B84206D14FF6FF57394046F480773943B0
:102E900005E04FF2FF57394044F48077394382838D
:102EA0000184F0BD028B4FF2FF331A400283028B84
:102EB0004FF6FF7303EA01231A4302837047F0B50C
:102EC0000C461546002200210026078C4FF6EF7CA9
:102ED00007EA0C070784028B018C4FF6FF7707EA9D
:102EE000041640F6FF473A404FF6FF7707EA0337EC
:102EF0003A434FF6FF7707EA05273A438F4FB84228
:102F00000ED08F4FB8420BD0B0F1804F08D08D4F0C
:102F1000B84205D08C4FB84202D08C4FB84206D18F
:102F20004FF6DF77394046F01007394305E04FF69A
:102F30005F77394044F01007394302830184F0BDC4
:102F4000028B4FF6F3731A400283028B0A4302830B
:102F50007047F0B50C46154600220021068C4FF64E
:102F6000FE773E400684028B018C4FF60C76324091
:102F70007E1C06EA03162E433243704EB0420ED03A
:102F80006F4EB0420BD0B0F1804F08D06D4EB042C2
:102F900005D06D4EB04202D06C4EB04206D14FF615
:102FA000FD76314044F00106314305E04FF6F576F9
:102FB000314044F00106314302830184F0BD70B515
:102FC00005460C465D4885420ED05D4885420BD0D3
:102FD000B5F1804F08D05B48854205D05A488542FC
:102FE00002D05A48854200D100E000BF208850B985
:102FF0002389A28861882846FFF7ABFFE18828462D
:10300000FFF79EFF25E0208804280AD12389A288A3
:1030100061882846FFF753FFE1882846FFF742FF03
:1030200017E0208808280AD12389A28861882846C9
:10303000FFF7FBFEE1882846FFF7EEFE09E0238953
:10304000A28861882846FFF7A6FEE1882846FFF798
:1030500095FE70BD2DE9F04105460C46002601277E
:10306000608808B9022600E00026A088012801D166
:10307000022700E001272088A0B92389A28861885F
:103080002846FFF766FFE1882846FFF759FF2389A6
:103090003A4631462846FFF712FFE1882846FFF7F7
:1030A00001FF13E02389A28861882846FFF707FF04
:1030B000E1882846FFF7F6FE23893A46314628463E
:1030C000FFF747FFE1882846FFF73AFFBDE8F081A8
:1030D0000A884B881A438B881A43CB881A430B897A
:1030E0001A434B891A438B891A43A0F8442070472E
:1030F0004FF6FF71818000210180C1804180017203
:1031000070470021018041808180C180018141811F
:103110008181C1817047002101804180012181802E
:103120000021C180018170470021018041808180A0
:10313000C18001814181818170470000002C0140E4
:10314000003401400004004000080040000C004032
:1031500021B1028842F00102028004E002884FF6A9
:10316000FE731A400280704731B1B0F8442042F437
:103170000042A0F8442005E0B0F84420C2F30E025B
:10318000A0F8442070471AB183890B43838102E081
:1031900083898B43838170478182704741EA0203B0
:1031A000A0F8483070471AB183890B43838102E04D
:1031B00083898B438381704701894FF6F8721140F0
:1031C000018170470A46002101894FF68F7319402B
:1031D00011430181704730B504460D46294620460B
:1031E000FFF7F0FF208940F00700208130BD2DE976
:1031F000F04104460D4616461F46602D06D13B465B
:10320000012231462046FFF75AFE05E03B460122E7
:1032100031462046FFF79DFE29462046FFF7D2FFA4
:10322000208940F007002081BDE8F08130B50C46D0
:1032300000210189C9B24FF6FF7505EA0325154340
:1032400025432943018130BD2DE9F04105460E4655
:1032500017469846002443463A4631462846FFF72B
:10326000E5FF2C894FF6F870044044F007044FF650
:103270008F70044044F070042C81BDE8F081F0B5FB
:1032800004460D4616461F463B4632462946204612
:10329000FFF7CCFF208940F480402081F0BD0185FC
:1032A000828270470A46002101884FF68F731940C9
:1032B000114301807047F0B50C4615461E460021AB
:1032C000002200230189028B038C4FF6F8773940E6
:1032D00021434FF6FC473A4040F201173A434FF67C
:1032E000DD773B404FF6FF7707EA06172F433B4356
:1032F000018102830384F0BD0A460021018B4FF651
:103300008F7319401143018370470A460021018BD6
:1033100048F6FF7319404FF6FF7303EA022319437F
:10332000018370470A460021818B4FF68F73194045
:103330001143818370470A460021818B48F6FF7351
:1033400019404FF6FF7303EA022319438183704744
:1033500021B1028842F08002028004E002884FF628
:103360007F731A400280704721B1828842F00402C4
:10337000828004E082884FF6FB731A408280704797
:1033800021B1828842F00802828004E082884FF6F0
:10339000F7731A408280704721B1828842F001029F
:1033A000828004E082884FF6FE731A408280704764
:1033B0000A460021018B4FF6F77319401143018330
:1033C00070470A460021018B4FF2FF7319404FF6F8
:1033D000FF7303EA02231943018370470A46002161
:1033E000818B4FF6F77319401143818370470A466A
:1033F0000021818B4FF2FF7319404FF6FF7303EAF0
:1034000002231943818370470A460021018B4FF63E
:10341000FB7319401143018370470A460021018B59
:103420004FF6FF3319404FF6FF7303EA02231943A7
:10343000018370470A460021818B4FF6FB731940C8
:103440001143818370470A460021818B4FF6FF3379
:1034500019404FF6FF7303EA022319438183704733
:103460000A460021018B4FF67F73194011430183F7
:1034700070470A460021018BC1F30E014FF6FF731E
:1034800003EA02231943018370470A460021818B16
:103490004FF67F7319401143818370470A4600211C
:1034A000818BC1F30E014FF6FF7303EA0223194328
:1034B000818370470A460021018C4FF6FD73194045
:1034C0001143018470470A460021018C4FF6F773BF
:1034D00019401143018470470A460021018C4FF6C0
:1034E000DF7319404FF6FF7303EA02131943018497
:1034F00070470A460021018C4FF67F7319404FF642
:10350000FF7303EA02131943018470470A4600213E
:10351000018C4FF6FF5319404FF6FF7303EA022365
:103520001943018470470A460021018C4FF2FF7352
:1035300019404FF6FF7303EA0223194301847047D1
:103540000A460021018C4DF6FF7319404FF6FF73B8
:1035500003EA023319430184704730B50023012484
:103560008C40A3B2048C9C430484048C02FA01F5C1
:10357000ADB22C43048430BD30B5002304248C400C
:10358000A3B2048C9C430484048C02FA01F5ADB20E
:103590002C43048430BD70B5034600200024184637
:1035A000183001258D40ACB21D8CA5431D8409B196
:1035B000082909D100EB6100056825F07005056058
:1035C0000568154305600EE00D1FC5F34E05284440
:1035D000056825F4E045056005684FF6FF7606EAC4
:1035E00002263543056070BD21B1028842F0020217
:1035F000028004E002884FF6FD731A400280704793
:1036000021B1028842F00402028004E002884FF6F1
:10361000FB731A400280704721B1828842F0800219
:10362000828004E082884FF67F731A408280704760
:1036300002884FF6F7731A40028002880A4302801C
:10364000704782884FF68F731A40828082880A43BF
:103650008280704702894FF6F8731A40028102890E
:103660000A430281704702894FF67F731A40028134
:1036700002890A43028170478184704781857047BF
:10368000818670470187704781877047A0F8401096
:10369000704702884FF6FF431A40028002880A43AF
:1036A000028070470146888E70470146088F704738
:1036B0000146888F70470146B1F8400070470146C7
:1036C000888C70470146088D704702460020138A97
:1036D0000B4201D0012000E000207047CA43028263
:1036E000704730B50246002000230024158A05EA01
:1036F0000103958905EA010413B10CB1012000E032
:10370000002030BDCA43028270470000094880474C
:1037100009480047FEE7FEE7FEE7FEE7FEE7FEE7B3
:10372000FEE7FEE7FEE7FEE704480549054A064BCB
:1037300070470000450400083101000878070020A8
:10374000780D002078090020780900200FB4044982
:1037500010B503AA029800F01BF910BC5DF814FB29
:10376000280000202DE9F0410E460446002020628A
:103770002046E168884730B3252805D0D4E90121E7
:103780009047206A401CF2E7E168204600278847FE
:10379000050018D0A5F14100192802D820354FF4B2
:1037A00000673246294620462760FCF71BFD40B1E2
:1037B000012804D0F61D26F007060836D8E7361D86
:1037C000D6E72846DAE7206ABDE8F0812DE9F04126
:1037D0000646002410687529314616A511D0AFF3AE
:1037E0000080002803DAC0F1000013A507E031686B
:1037F0008A0701D511A502E0490704D510A50124C7
:1038000001E0AFF3008000210A2306F1240707E05E
:10381000B0FBF3F203FB1200303078541046491C21
:103820000028F5D123462A463046BDE8F04100F095
:1038300052B80000000000002D0000002B00000026
:103840002000000010B5431C02E010F8011B71B10C
:103850008107FAD14FF0013202C88C1A8C4314EA66
:10386000C211F9D0C01A0A0603D0C01E10BDC01A7A
:1038700010BD0A0401D0801E10BD0902FCD0401EFC
:1038800010BD4FF0000200B513469446964620390D
:1038900022BFA0E80C50A0E80C50B1F12001BFF409
:1038A000F7AF090728BFA0E80C5048BF0CC05DF86F
:1038B00004EB890028BF40F8042B08BF704748BFBD
:1038C00020F8022B11F0804F18BF00F8012B704731
:1038D0007047704770472DE9F0470D46994692466C
:1038E000044600F124080168880604D5E06921F047
:1038F0001001216000E00120A84202DDA0EB0507D5
:1039000000E00027A16907EB050202EB0900A1EB2B
:103910000000A0612078C00602D42046AFF30080EA
:10392000002608E0D4E901211AF806009047206A31
:10393000401C761C20624E45F4DB2078C0060AD578
:103940002046AFF3008006E0D4E901213020904703
:10395000206A401C2062381EA7F10107F4DC07E052
:10396000D4E9012118F805009047206A401C206224
:10397000281EA5F10105F3DC2046AFF30080207876
:10398000000602D50220BDE8F0870120FBE7000019
:10399000074B70B50D467B4400F011F804462846ED
:1039A000FDF75BF910B14FF0FF3070BD204670BDE0
:1039B0008DD2FFFF01694A1C02610878704700B58B
:1039C0008FB0CDE901310021059105497944CDE958
:1039D000031011466846FFF7C5FE0FB000BD00009A
:1039E000E5FFFFFF754600F029F8AE460500694681
:1039F000534620F00700854618B020B5FFF794FE27
:103A0000BDE820404FF000064FF000074FF00008DF
:103A10004FF0000B21F00701AC46ACE8C009ACE860
:103A2000C009ACE8C009ACE8C0098D46704704463F
:103A3000AFF300802046FCF7E7FB0000004870472A
:103A4000180700204FEA1153A3F58063D3F11E033A
:103A5000A8BFD3F1200C08DB4FF0004242EAC1229C
:103A600052EA505232FA03F0704709420BD4102B3D
:103A7000C4BF0020704703F5787CBCF1FF3F05D040
:103A80004FF0FF3070474FF00000704770B500F006
:103A9000C3F800BF4992248000207047F0E7B0FAD5
:103AA00080F310FA03F10AD0C3F11D0303F580631C
:103AB0004FEA41504FEA035202EBD12170474FF0D9
:103AC00000007047DFF848C170B51CEA111E1EBF28
:103AD0001CEA13159EEA0C0F95EA0C0F00F06F809C
:103AE00081EA030423EA4C134EEAD47E21EA4C1106
:103AF00041F4801143F48013AE44A1FB024CA0FBBF
:103B00000365AEF17F7E361955EB0C05A1FB034C26
:103B10004CF10003A0FB021C16EB0C06654153F1AF
:103B20000003094218BF46F0010613F4007F0BD1D1
:103B30004FEA03314FEA0530340341EA155140EAB8
:103B400016506FF003020AE04FEAC3214FEAC52086
:103B5000F40241EA555140EA56506FF0020202EB7E
:103B60002E4201EB025585EACE710AD05FEA440C81
:103B700018BF24F0004450F1000041F1000120EA98
:103B8000D47040F2FE7C624500D270BDA84214BFE2
:103B90004FF080444FF04044002E08BF0024BEF197
:103BA000806FA8BFA1F1C041BDE8704080F2828063
:103BB0004FF0000001F1C04101F0004170479EEA62
:103BC0000C0F0CEA131518BF95EA0C0F06D04FF036
:103BD000000081EA030E0EF0004170BD00F01CF8F9
:103BE0008900013E00F007B800F009B84FEA430C25
:103BF0005FEA5C5C08D081EA030100F05BB84FEA41
:103C0000410C5FEA5C5CF6D14FF00000014970475F
:103C10000000FF070000F87F0EF1020E2EF0030EE9
:103C20005EF8046B364205D4012A43EB030515F513
:103C3000001F12D8012841EB010C1CF5001F0CD805
:103C40000ED14FEAD17C15F5001F0CEB4C0C0CF19A
:103C5000020C08BF4CEBD37C04E04FF0080C01E0F1
:103C60004FEAD37C0CEB4C0526FA05F606F0070666
:103C7000B6F1040C06D20EEB860CBDE870404CF099
:103C8000010C6047DFE80CF0090B02024FF0004125
:103C90004FF00000A1F5002170BD19461046012823
:103CA00051EB010418BFD4F5001484BF002001F0CB
:103CB000004170BD0808A0F500114FEA31017047BE
:103CC000E03C000800000020E80300006C01000850
:103CD000E83E0008E803002090090000C801000841
:103CE0001184A24A04380901020304060708090CDA
:103CF000011B09161CA918320E323F3206325B3204
:103D00004F3266326D327D3207327F326F32773218
:103D10007C3239325E327972710214031E0402FF62
:103D2000FF02B7172040FFFF4020241028441C4406
:103D300028100321190D3810042246404046220461
:103D400004221610101622E0320A280B02040F1269
:103D50000F0A1F020F09023D09111F1103114C7CAC
:103D60002B2D012985298C5A5F1179105911891041
:103D7000491199103911A9102911B9101911C91037
:103D80005B5F2B10D4313025DA3210DA3310DA349D
:103D900010DA3610DA3810DA3910CB313011400D24
:103DA000312E496E7465677261746564300E6465A6
:103DB0007369676E206F662053434D1010616E6407
:103DC000205246494420636F757273653A32303031
:103DD000086C6C6967656E741809656C657661744A
:103DE0006F7220980C6E74726F6C73797374656D5A
:103DF000C0300D2E6368656E20687528303629281E
:103E00000B6875206A69616E2833300E212A77109D
:103E1000100B6E2070696E67283837291808796191
:103E20006E207A6920341667283938292808342EFC
:103E300032303230207515726E657419991B7468B2
:103E40002D72732809456E67696E65657240180D9D
:103E50005A534229352E5363686F6F6CC2511E63EB
:103E60006F6D70753C1A20C941500C696E666F7297
:103E70006D6174696F6E280A362E416E687569200F
:103E80004E16226C1020556E6976657273697479CE
:103E90002841484E5529203E53797320696E697434
:103EA000205375633C8A20012A3AC21C52756E7BEE
:103EB000A14910EA2E1079116910691149107A2070
:103EC00011F910A64649443A20AC204A5A0F21382D
:103ED00008010203040506070B99132904000900D1
:083EE0000607080902040608A8
:040000050800370DAB
:00000001FF
